:020000020000FC
:0200000018C026
:100030003BC10FEF0DBF00E10EBF0CE00BBD04E3B1
:100040000ABD0CE00EBD00E107BFA698AE9AA59AC6
:10005000AD9AA49AAC9AA39AAB9ABE98C69ABF9846
:10006000C79ABC9AC49ABD9AC598B898C09A8F98F6
:100070008E988D9807E806B900D4A89501B508E1D7
:10008000086101BD07E001BDF2D307D420D4A895D3
:1000900096D3EEF700C0163079F1123071F11430BA
:1000A00069F1183061F11E3159F11E3251F11730EA
:1000B00049F1173141F1133039F1133131F1193070
:1000C00029F1193121F11A3019F11C3011F11231D5
:1000D00009F1143101F11831F9F0103DF1F0143A41
:1000E000E9F0153AE1F0163AD9F0173AD1F01B379A
:1000F000C9F01EEE77D3CBCF16C03BC051C06FC046
:1001000088C0D4C07CC1A6C1C3C1EDC10AC20FC2A0
:1001100015C22BC240C256C274C292C298C2A4C2B7
:10012000B0C2BCC2C8C25ED33ED3212F3CD3312F54
:100130003AD3412F122F56D3132F54D3142F52D307
:10014000B09BBFC210EF4ED3BFD2C8D21AE0DDD2EF
:1001500088E116E0DAD288E2122FD7D288E2132F94
:10016000D4D288E2142FD1D288E2C8D211EF3AD388
:100170008ECF38D318D336D31F93B09BA2C210EFC3
:1001800031D3A2D2ABD21AE0C0D288E112E0BDD204
:1001900088E21F91BAD288E2B1D211EF23D377CF90
:1001A00021D301D3212FFFD2312F122F1BD3132F95
:1001B00019D3B09B86C210EF15D386D28FD21AE026
:1001C000A4D288E114E0A1D288E2122F9ED288E264
:1001D000132F9BD288E292D211EF04D358CF02D3CF
:1001E000E2D200D31F93B09B6CC210EFFBD26CD253
:1001F00075D21AE08AD288E193D218E086D288E2DA
:100200008FD21F9182D288E28BD278D211EFEAD2BC
:100210003ECFE8D20FEF0093610000936200AB98ED
:10022000AC98AC9AAB9A00E0009361000FEF00939A
:10023000620000E00ABB0FEF0BBB50E045D24ED28C
:100240001AE063D288E16CD21EE15FD288E268D204
:1002500055D2B0991CCF9E9BFCCF9E99FECF152FF7
:10026000CAD2AB98AD98000010B1C5D219B3C3D2B1
:10027000AD9AAD98000010B1BED219B3BCD2AD9A00
:10028000AD98000010B1B7D219B3B5D2AD9AAD9800
:10029000000010B1B0D219B3AED2AD9AAB9A53955B
:1002A00053955395A895D5CF926018959BD20FEF93
:1002B0000093610000936200AB98AC98AC9AAB9A43
:1002C00000E0009361000FEF0093620000E00ABBC2
:1002D0000FEF0BBB50E0F8D19D7F789400C091FFE9
:1002E000FECF9D7FB69902C0F89485C0EDD1F6D1BE
:1002F00010E90BD288E114D21AEA07D288E210D2B0
:10030000EDD111E902D280E40BD210D2612F80E549
:1003100007D216D2712F88E503D2F0D1172F62D2FF
:10032000162F60D2D1D1DAD11EE9EFD188E1F8D110
:100330001AEAEBD188E2F4D1D1D11FE9E6D180E409
:10034000EFD1F4D1612F80E5EBD1FAD1712F88E59F
:10035000E7D1D4D1172F46D2162F44D204E407B9DF
:10036000369A3699FECF14B13DD215B13BD205E491
:1003700007B9369A3699FECF14B134D215B132D2BC
:10038000E3E0F0E009D2102F2DD2A8D11AE0BDD1C0
:1003900088E1C6D11EE1B9D188E2C2D1AFD1B0990E
:1003A0009ECF9E9BFCCF9E99FECF152F24D2AB985B
:1003B000AD98000010B11FD219B31DD2AD9AAD98FF
:1003C000000010B118D219B316D2AD9AAD98000042
:1003D00010B111D219B30FD2AD9AAD98000010B17F
:1003E0000AD219B308D2AD9AAB9A53955395539547
:1003F000A895D5CF74CFD7D11EE3F4D148CEF2D192
:10040000D2D1F0D11F9360D169D110E97ED188E1BA
:1004100087D111EA7AD188E283D11F9176D188E21F
:100420007FD11F9310E071D188E27AD167D156D184
:1004300010E96BD188E174D112EA67D188E270D1FA
:100440001F9163D188E26CD110E05FD188E268D15E
:1004500055D11DCEC7D138D141D110E956D188E14F
:100460005FD11AEA52D188E25BD138D111E94DD17E
:1004700080E456D15BD1612F80E552D161D1712FDB
:1004800088E54ED13BD1172FADD1162FABD1FFCD83
:10049000A9D189D1A7D11F9317D120D11EE935D178
:1004A00088E13ED111EA31D188E23AD11F912DD1B4
:1004B00088E236D11F9310E028D188E231D11ED1D5
:1004C0000DD11EE922D188E12BD112EA1ED188E29A
:1004D00027D11F911AD188E223D110E016D188E2EA
:1004E0001FD10CD1D4CD7ED1EFD0F8D01EE90DD1E3
:1004F00088E116D11AEA09D188E212D1EFD01FE9BA
:1005000004D180E40DD112D1612F80E509D118D139
:10051000712F88E505D1F2D0172F64D1162F62D143
:10052000B6CD60D1E3E0F0E000E025D1B0CD5AD106
:10053000E3E0F0E031D1102F55D1A9CD53D133D123
:1005400051D11F93B09BBDC010EF4CD1BDD0C6D0D0
:100550001AE0DBD088E11AE0D8D088E21F91D5D02C
:1005600088E2CCD011EF3ED192CD3CD1ADD0B6D007
:100570001BE0CBD088E1D4D01CE0C7D088E2D0D03B
:10058000ADD01BE0C2D080E4CBD0D0D080E5C8D0C5
:10059000B5D028D17CCD26D106D124D11F93B09BD4
:1005A00090C010EF1FD190D099D01AE0AED088E162
:1005B00012E1ABD088E21F91A8D088E29FD011EF62
:1005C00011D165CD0FD1EFD0212FEDD0312F122FCA
:1005D00009D1132F07D1B09B74C010EF03D174D091
:1005E0007DD01AE092D088E114E18FD088E2122FFA
:1005F0008CD088E2132F89D088E280D011EFF2D01E
:1006000046CDF0D0D0D0212FCED0312F122FEAD02E
:10061000132FE8D0B09B55C010EFE4D055D05ED07A
:100620001AE073D088E118E170D088E2122F6DD003
:1006300088E2132F6AD088E261D011EFD3D027CDA2
:10064000D1D010B3107ECED011EFCCD020CDCAD0F7
:1006500004E407B9369A3699FECF14B1C3D015B168
:10066000C1D011EFBFD013CDBDD005E407B9369A84
:100670003699FECF14B1B6D015B1B4D011EFB2D0C7
:1006800006CDB0D006E407B9369A3699FECF14B13C
:10069000A9D015B1A7D011EFA5D0F9CCA3D007E40C
:1006A00007B9369A3699FECF14B19CD015B19AD0BD
:1006B00011EF98D0ECCC96D0B89AC09AC098C09A56
:1006C000E6CC1BEB8FD0E3CC02E10093700001E09D
:1006D0000093710004E400937400089504EA009309
:1006E00074000091740007FFFCCF00917100087F37
:1006F000083019F0003109F02DC0089504E9009385
:10070000740000917100087F0895012F0093730019
:1007100004E8009374000091740007FFFCCF089573
:1007200000917100087F0817A9F4089504EC009364
:1007300074000091740007FFFCCF109173000895BE
:1007400004E8009374000091740007FFFCCF10913F
:10075000730008951FEF46D0D1DF00E000937400CE
:10076000B3DF0895E0E0F0E0022F05D0E1E0F0E033
:10077000032F01D00895E199FECFFFBBEEBB0DBB67
:10078000E29AE19A0895E0E0F0E006D0202FE1E05F
:10079000F0E002D0302F0895E199FECFFFBBEEBB11
:1007A000E09A0DB3089500E002B90FEF03B9B69BCC
:1007B00001C0FDCFC498000011B1C49A089500E0B3
:1007C00002B90FEF03B95527B69B04C053955436B1
:1007D00039F0FACFC498000011B1C49A6894089512
:1007E000E89408950FEF02B9B79B01C0FDCF13B98C
:1007F000C59AC59808950FEF02B913B9C59AC5985F
:1008000008950FEF02B900E020E83AE146E023B98D
:10081000C598C59A039533B9C598C59A00000000DC
:1008200000000000000000000000000000000000C8
:1008300000000000000000000000000000000000B8
:1008400000000000000021503040404078F0DFCF31
:1008500023B9B799FECFC598C59A33B9B799FECFDA
:10086000C598C59A2150304008F0F2CF0895E3E0D2
:10087000F0E092DF03957FDF0895A89501B508E1C8
:10088000086101BD08E001BD0895A89501B508E122
:10089000086101BD00E001BD089516DF1FDF10E90A
:1008A00034DF88E13DDF1CEA30DF88E239DF10E029
:1008B0002CDF88E235DF22DF11DF10E926DF88E157
:1008C0002FDF1EEE22DF88E22BDF18DF0895FCDE2B
:1008D00005DF1EE91ADF88E123DF1CEA16DF88E264
:1008E0001FDF10E012DF88E21BDF08DFF7DE1EE902
:1008F0000CDF88E115DF1EEE08DF88E211DFFEDE87
:02090000089558
:00000001FF
